:100000000C9400020C9438020C9438020C943802C0
:100010000C9438020C9438020C9438020C94380278
:100020000C9438020C9438020C94C1210C94952243
:100030000C94451C0C9438020C9438020C94380231
:100040000C9438020C9438020C9438020C94380248
:100050000C9438020C94CC1C0C9438020C9438028A
:100060000C9438020C9438020C9438020C94380228
:100070000C9438020C9438020C9438020C94380218
:100080000C9438020C9438020C9438020C94380208
:100090000C9438020C9438020C9438020C943802F8
:1000A0000C9438020C9438020C9438022900000099
:1000B0003A003B003C003D0000003E003F00400095
:1000C000410042004300440045004600470048000C
:1000D00035001E001F002000210022002300240004
:1000E0002500260027002D002E0000002A004900D0
:1000F0004A004B002B00000014001A0008001500F5
:1001000017001C0018000C00120013002F00300014
:1001100000004C004D004E003900000004001600A5
:10012000070009000A000B000D000E000F0033004D
:10013000340032002800000000000000E1006400EC
:100140001D001B00060019000500110010003600FC
:10015000370038000000E5000000000052000000F9
:10016000E000E300E2000000000000002C000000BE
:10017000000000000000E6000000E700E40050007E
:1001800051004F0000000000000000002A2B280052
:100190000000000000000000000000000000002936
:1001A000000000002C1E3420212224342627252E76
:1001B000362D3738271E1F202122232425263333AE
:1001C000362E37381F0405060708090A0B0C0D0EDA
:1001D0000F101112131415161718191A1B1C1D2FA6
:1001E0003130232D350405060708090A0B0C0D0EC6
:1001F0000F101112131415161718191A1B1C1D2F86
:100200003130354C0000000000000000000000000C
:1002100000000000000000000000000000000000DE
:1002200000000000000000007E0F00D4FFFFFFC7A9
:10023000000000781A03720061006D0061005F0029
:100240007500380030005F00690073006F00000027
:1002500020034D00610072006300750073002000F0
:1002600052006900730061006E0067006500720053
:1002700000000403090409025B00030100A0FA095D
:1002800004000001030101000921110100012244C1
:1002900000070581030800010904010002030000B2
:1002A000000921110100012222000705820320001C
:1002B00001070503032000010904020001030000F7
:1002C0000009211101000122B60007058403200066
:1002D000011201000200000008524D3936010001F0
:1002E0000200010660FF0961A1010962150026FFF5
:1002F000009520750881020963150026FF009520EE
:1003000075089102C005010902A10185020901A138
:1003100000050919012908150025019508750181B5
:10032000020501093009311581257F950275088183
:100330000609381581257F950175088106050C0A87
:1003400038021581257F950175088106C0C0050119
:100350000980A101850319012AB700150126B700FC
:10036000950175108100C0050C0901A101850419D2
:10037000012AA002150126A002950175108100C076
:1003800005010906A1018506050719E029E7150001
:1003900025019508750181020507190029EF15004F
:1003A000250195F0750181020508190129059505BA
:1003B00075019102950175039101C005010906A11E
:1003C00001050719E029E715002501950875018148
:1003D000029501750881010507190029FF150026FE
:1003E000FF0095067508810005081901290515000B
:1003F0002501950575019102950175039101C000D4
:1004000011241FBECFEFDAE0DEBFCDBF04B603FE7E
:1004100018C080910A0390910B03A0910C03B09136
:100420000D038730904BA740B04B59F410920A034C
:1004300010920B0310920C0310920D03E0E0F8E30E
:10044000099511E0A0E0B1E0E8ECFAE402C0059003
:100450000D92A43BB107D9F723E0A4EBB1E001C0B2
:100460001D92AA30B207E1F70E9494110C94102556
:100470000C940000811112C0663080F4423170F497
:10048000E42FF0E082E1689FE00DF11D1124EE0FF2
:10049000FF1FE455FF4F85919491089581E090E00E
:1004A000089581E008950E945102089581E0089521
:1004B0000E94510208950E945802089508950E94D2
:1004C0005E020895A6E0B0E0E8E6F2E00C946C2449
:1004D00049835A839E833091BB0189819A8131116E
:1004E0001AC03E81332399F0222389F00E94D2075B
:1004F000182F682F89819A810E94AE0769817A81BD
:10050000812F0E94260F2696E3E00C9488240E94F7
:10051000C007182FF3CF0E94D20769817A81F1CFEB
:10052000FC01262F408151816281738184819581F4
:100530000E9462020895CF93DF93EC0161E00E9474
:100540009002BE010E945302DF91CF910895CF9394
:10055000DF93EC0160E00E949002BE010E945F0206
:10056000DF91CF91089581E008950E94B30208952C
:10057000CF93C82F0E94AA068C2F0E94B5022FEF9E
:1005800084E39CE0215080409040E1F700C00000EF
:10059000CF91089581E00E94B8020E94F01C089556
:1005A00080E00E94B8020E94141D08950F931F93CB
:1005B000CF93DF938C0161E00E949002EC01B801BF
:1005C0000E947219811106C080E0DF91CF911F91C6
:1005D0000F910895B801CE010E945B028823A1F318
:1005E000B801CE010E947F18882371F3B801CE01B3
:1005F0000E949A13882341F3B801CE010E94701320
:10060000882311F3B801CE010E94C3188823E1F2B8
:10061000F8018581882361F0C330FCE7DF07E9F04A
:1006200058F4C115ECE7DE07A9F0C130DC47B9F09A
:10063000C8010E945602C9CFCB358CE7D807A9F074
:10064000CC35ECE7DE0771F0CA35DC4789F70E944C
:100650003B0CEECF0E94CA02B7CF0E94430C0E940F
:10066000D002B2CF0E94310CE3CF0E943F0CE0CF0A
:100670000E941F1C0E945F0308950E9463030E9452
:10068000241C0895089581E008950895CF93DF9381
:10069000D82F0E944303C82F882319F08D2F0E9462
:1006A00045038C2FDF91CF9108950895CF93C82FE4
:1006B0000E9442038C2F0E944603CF91089580E050
:1006C0000E94560308950E945F1A0E9456030895DF
:1006D000CF930E945F1AC82F8091B6018C1779F0D2
:1006E000C093B6010E94B11C6093B7017093B8012A
:1006F0008093B9019093BA018C2F0E945603CF9139
:100700000895ADE0B0E0E7E8F3E00C946D2448878D
:1007100059876A877B878C879D8791110E94410B3F
:100720001F8286E0FE013896DE01119601900D923F
:100730008A95E1F78D8181110DC029813A814B8124
:100740005C816D817E818F810E948B0A2D96E2E013
:100750000C948924CE0101960E949B028111EDCF59
:10076000F5CFFC012481213021F4808191810E9408
:10077000FF070895662329F00E94FB140E94E015EC
:1007800008950E946715FACFCF93C82F882399F058
:100790008CEF8C0F813A88F48C2F0E94FF1A8823EB
:1007A00029F08C2F0E949F1B0E94D50B8C2F0E943A
:1007B000881B0E94D50BCF91089580E28C0F883062
:1007C00048F4C77081E001C0880FCA95EAF70E941B
:1007D000240BEFCFEBE5EC0FE33040F4F0E0E05B0F
:1007E000FE4F808190E00E94931AE5CFE8E5EC0F80
:1007F000EB3150F4F0E0EE0FFF1FE65EFE4F80811C
:1008000091810E94B81AD7CF83E38C0F833198F679
:1008100061E08C2F0E94BA03CECF882381F19CEF38
:10082000980F913A28F40E949F1B0E94D50B0895BF
:1008300090E2980F983050F4877091E001C0990FC2
:100840008A95EAF7892F0E942A0BEFCF9BE5980F34
:10085000933028F490E080E00E94931A089598E580
:10086000980F9B3128F490E080E00E94B81A089518
:1008700093E3980F933118F460E00E94BA0308954F
:100880001F93CF93DF93182FEB010E94C40320978F
:1008900039F4812F0E940D04DF91CF911F910895AB
:1008A0008FE99FE00197F1F700C000002197EFCF9B
:1008B00070E060E0893311F460E570E00E9440046C
:1008C0000895882321F00E94240B0E94D50B0895DF
:1008D000882321F00E942A0B0E94D50B0895B0E0D6
:1008E000A0E0E5E7F4E00C9466246C01D62FC72F56
:1008F000FC011581068102950F700E941A0BE82EEB
:100900008823F9F0E12E1123E1F08C2F807F8034D1
:1009100061F080E28D0F883008F18C2F807E80326C
:1009200021F4D230D8F00023C9F08091C80282FFB0
:1009300015C082E00E94050C0E941A0B91E0E82E7F
:10094000E926BC2EB2949FE0B922FBE0FB15B8F17A
:10095000EB2DF0E0EE5EFA4D0C945024E12CF1CF3B
:100960000C2F0F70C07F11F00295007F112399F0BA
:10097000002359F080E28D0F883010F0D11107C0AC
:10098000802F0E94240B0E94D50B8D2F5AC0802FE0
:100990000E94340BF8CF8D2F0E940D04002379F0B4
:1009A00080E28D0F883010F0D11104C0802F0E949A
:1009B0002A0B03C0802F0E943A0B0E94D50BEB2D0F
:1009C000E850FF0B349720F40E945F1A0E945603F0
:1009D000EE2089F00E94160B80FD0DC0F6011582F5
:1009E0000E94100B0E942207C6010E9471060E94FD
:1009F000100B0E942E07CDB7DEB7E9E00C948224DD
:100A00002C2F2F70F22EC07FC03219F0F29480EF9D
:100A1000F822DD2341F0D130D1F1112309F444C093
:100A20000023F1F0B2CF8091C80282FD15C01123DE
:100A300059F0FF2029F08F2D0E94240B0E94D50B26
:100A400080E00E94C403BBCF80E00E940D04FF2021
:100A500009F4B5CF8F2DABCF112369F0011104C07C
:100A60008F2D0E946104ABCF013009F0A8CF8F2DEC
:100A70000E94580BA4CF0111A2CF8F2D0E946804B1
:100A80008F2D0E94640B8F2D0E94480B98CF11234D
:100A900021F0063008F093CFE3CF053008F08FCF78
:100AA0008F2D0E9468048BCF0023D1F3D93349F4F2
:100AB0003FEF87EE93E0315080409040E1F700C077
:100AC00000008D2F0E940D047ACF8C2F869586957D
:100AD000837069F0813009F072CF8D2F9C2F937055
:100AE000111102C080E090E00E94B81A68CF8D2FEB
:100AF0009C2F9370111102C080E090E00E94931A25
:100B00005ECF612F8D2F0E94BA0359CF8C2F837037
:100B100079F5111154CF4D2F429546954770440FEA
:100B2000440F8D2F8F70042E01C0880F0A94EAF7AE
:100B30002D2F2071D4FF07C02FE030E001C0220F1D
:100B40004A95EAF72095C695C695C370822BC230A8
:100B500049F058F4C13019F00E94FE0630CF0E94CF
:100B6000F8062DCF0E9404072ACF0E94F50627CF52
:100B70008695112311F08C2F8170882309F41FCFE3
:100B80004D2F429546954770440F440F8D2F8F701F
:100B9000042E01C0880F0A94EAF72D2F2071D4FF8C
:100BA00007C02FE030E001C0220F4A95EAF72095F8
:100BB000C695C695C370822BC23049F058F4C13037
:100BC00019F00E944D07FBCE0E944707F8CE0E9405
:100BD0005307F5CE0E941007F2CECF70112329F0F3
:100BE0008C2F0E9422078D2F3CCF8D2F0E946804EE
:100BF0008C2F0E942E07E3CED23F41F160F4D03F0C
:100C0000B9F0D13F81F0112309F443C00111BDCEE9
:100C10008C2F8F711FC0D33F01F1D43FA1F780917A
:100C2000C80282FD24C08C2F8F71112311F312C0D2
:100C3000112341F0053008F0C2CE8C2F8F710E9435
:100C40003B07BDCE063008F0BACEF7CF8C2F8F71A0
:100C50001111CFCF0E942207B2CE112329F08C2F81
:100C60008F710E941907ABCE0E941507A8CE1123E1
:100C700031F063E08C2F8F710E94E70BA0CE81E0F2
:100C80000E94050C023008F49ACE82E00E94050C06
:100C900096CE002359F0D93309F013CFEFEFF7EEDA
:100CA00023E0E150F0402040E1F709CF8C2F8F7115
:100CB000A0CF0F931F93CF93DF93EC0168817981CD
:100CC0008D810E940A088C010E9459070E94F40637
:100CD000B801CE010E946F04DF91CF911F910F9157
:100CE0000895CF93DF93EC018C81882399F0CE0196
:100CF0000E94D602811111C00E941A0B882351F064
:100D00008D81882339F08091C80282FF03C082E080
:100D10000E94050CDF91CF910895CE010E945906E3
:100D2000CE010E94A702F6CF90E080E00E94931AC5
:100D300090E080E00E94B81A0E94410B0E94D50BFF
:100D40000E94FC150E94E01508950E94B61B0E94A7
:100D5000940608950E94310B0E94A506089592956D
:100D60009F70963091F058F4925F9F70923058F4D3
:100D7000803F19F030F4883E30F481E008959A5FA6
:100D8000F4CF843FD1F380E00895883EB0F3813FF3
:100D9000D1F7F3CFFC012481222339F080819181A6
:100DA0000E94FF070E94AF06089580E00895A6E024
:100DB000B0E0EDEDF6E00C946D242696E2E00C94A4
:100DC0008924A7E0B0E0E7EEF6E00C946D242796C6
:100DD000E2E00C94892408950E94EB0608950E9495
:100DE000EC068093E701089508950E94EF060895A8
:100DF0009091E701892B0E94EF0608959091E701F9
:100E000089230E94EF0608959091E70189270E94A7
:100E1000EF0608950E94EB0608950E940A070895C0
:100E20000E940D078093E601089580E00E9410075C
:100E3000089591E001C0990F8A95EAF7892F0E94E1
:100E40001007089521E030E001C0220F8A95EAF7EB
:100E50008091E601822B0E941007089521E030E086
:100E600001C0220F8A95EAF720958091E60182233E
:100E70000E941007089521E030E001C0220F8A95FA
:100E8000EAF78091E60182270E9410070895909169
:100E9000E601892B0E94100708959091E6018923AD
:100EA0000E94100708959091E60189270E9410077B
:100EB00008950895262F277091E001C0990F2A9573
:100EC000EAF723E0769567952A95E1F7FB01EE0FA7
:100ED000FF1FE60FF71FE40FF51F50E040E0682FFB
:100EE00070E08191DF0111979B01042E02C03695BD
:100EF00027950A94E2F7217021952827292328278E
:100F00002C934F5F5F4F4330510559F70895A82F39
:100F1000A77023E0969587952A95E1F7FC01EE0FDF
:100F2000FF1FE80FF91FE60FF71F50E040E080E0D9
:100F3000219130E00A2E02C0369527950A94E2F7F7
:100F400021703327042E01C0220F0A94EAF7822B66
:100F50004F5F5F4F4330510559F70895262F963064
:100F600070F4823160F4682F70E082E1989F600D28
:100F7000711D11244CEB51E0822F0E945A070895F5
:100F8000292F963068F4823158F490E06CEB71E0D0
:100F900032E1239F800D911D11240E94870708953F
:100FA00080E00895CF92DF92FF920F931F93CF932B
:100FB000DF936C010091E6018091E701082BC3E00B
:100FC000D0E010E0FC2EC8010C2E02C0959587954C
:100FD0000A94E2F780FD0CC02197A0F7F12C8F2D29
:100FE000DF91CF911F910F91FF90DF90CF900895E7
:100FF000B6018C2F0E94320F019771F3F0CFCF937F
:10100000DF93EC010E94D207BE010E94320FDF91F4
:10101000CF9108951F93CF93DF93EB019091BB0184
:10102000992339F0CB010E94FF07DF91CF911F91E7
:101030000895882369F0CB010E94D207182F682FEA
:10104000CE010E94AE07BE01812F0E94320FEDCF6C
:10105000CB010E94C007182FF6CFE1E0F0E0DF01DE
:1010600002C0AA0FBB1F6A95E2F7BD01DF0102C0F3
:10107000AA0FBB1F4A95E2F76A2B01C0EE0F2A9513
:10108000EAF7962F9823961302C08E2B0895E095C9
:101090008E230895242F462F682F8091E6010E9409
:1010A0002D080E94100708951F93CF93DF93C091DE
:1010B000E80117E08091E9018C1304C0DF91CF9122
:1010C0001F910895D0E01C9FF0011D9FF00D112489
:1010D000E651FE4F208131814281538164817581C7
:1010E00086810E94E1062196C770E4CF20912202FA
:1010F00030912302409124025091250260912602F2
:1011000070912702809128020E94E1060895CF93F2
:10111000DF9380912802807F09F04DC080912702E3
:10112000882309F448C0E091E8015091E901C09199
:101130002302D0912202609124027091250247E09F
:101140005E17C9F18E2F90E0E49FF0011124E65163
:10115000FE4F2481222391F1489FF001499FF00D19
:101160001124DF01A651BE4F11962C9111972C131B
:1011700025C02C912D1322C015962C911597211165
:101180001DC012962D913C91261B370B283C310532
:10119000A8F4809128028F70806180932802E0512A
:1011A000FE4F80818F708061808382E292E00E9496
:1011B00071060E945408DF91CF910895FC01319689
:1011C000E770BECF482F2091E8019091E90157E0E8
:1011D000291302C080E0089530E0529FF001539F30
:1011E000F00D1124E651FE4F8181681306C0808105
:1011F000481303C085818111EECF2F5F3F4F2770C9
:10120000E7CFA4E1B0E0E7E0F9E00C9463248C01BF
:1012100086E0F801DE011F9601900D928A95E1F7B4
:10122000F8018481E58092E2A92E92E0B92E909196
:10123000260291111FC08823D1F0EE20A9F0C80129
:101240000E94CA06F82E882379F087E0F801D501BC
:1012500001900D928A95E1F7C5010E94B1030E94A9
:1012600087080E9476085FC0C8010E947106FF24AB
:10127000F39459C0C080D18082809380F09027027F
:101280002091240230912502A401421B530BFF2020
:1012900009F4F9C0483C510508F0A7C0882309F4B7
:1012A00042C09091230280912802282F207F09F0CC
:1012B0005CC09D1116C090912202C91212C0E110AB
:1012C0004EC08F708061809328020E94760882E26F
:1012D00092E00E94710680912802F8018683F12C29
:1012E00022C0E1103CC06D2D8C2D0E94E2086D2DB6
:1012F0008C2D0E94E208E82E8111F1CFCF86D88A8A
:101300008F8598890E94FF07292F22952F702430FE
:1013100078F49F702230A8F09923B9F0F8019681F3
:10132000907F99F4FE2C8F2D6496ECE00C947F2432
:101330002A5F2F70223068F0C8010E947106EF2CDE
:10134000F1CF992311F0882369F3805E883050F340
:10135000F3CF803F38F3815F833070F7E3CF809124
:101360002802816080932802BACF9D1113C090910A
:101370002202C9120FC0E1100DC08683C8010E946D
:10138000710687E0F801A2E2B2E001900D928A9521
:10139000E1F767CFC8010E94CA06882309F464CF29
:1013A000EE2009F461CF80912802803288F02091EC
:1013B000220230912302398728879B868A86909162
:1013C00026029C871D868E87CE0108960E94710694
:1013D00087E0F801A2E2B2E001900D928A95E1F770
:1013E0000E9487080E94760842CF90912802292FF8
:1013F000207FA1F4682D9A8A898AA6017A899E2D78
:101400000E94D70682E292E00E94710687E0F50111
:1014100011928A95E9F70E94760861CF882309F432
:1014200082CF809123028D1110C080912202C812B8
:101430000CC0E1100AC09683C8010E94710687E0C3
:10144000F50111928A95E9F76ECFC8010E94CA068C
:10145000882309F409CFEE2009F406CF80912802F1
:10146000803208F4B5CF20912202309123023A83D2
:1014700029839C828B82909126029D831E828F837A
:10148000CE010196A3CF483C5105B8F5882309F455
:10149000EECEFE2CEE2009F4E7CE809123028D11D2
:1014A0001EC080912202C8121AC08091280280FDBD
:1014B0000DC0982F907F51F08683903F09F45ECF46
:1014C000982F907F905F8F70892B57CF87E0F8011E
:1014D000A2E2B2E001900D928A95E1F724CFC80113
:1014E0000E94CA06811174CF809128028160809386
:1014F0002802C8010E94710616CF682D9A8A898A2F
:10150000A6017A899E2D0E94D70687E0F5011192E7
:101510008A95E9F7A6CEAEE0B0E0E1E9FAE00C94F6
:101520006C24288739874A875B876C877D878E87FD
:10153000CE0108960E9401098823B1F06C856623CC
:1015400041F0288539854A855B857D858E850E9499
:10155000E10617E08091E8019091E90189133DC00F
:101560002E96E3E00C94882487E0FE013896DE0195
:10157000119601900D928A95E1F78C85882349F3A5
:101580002091E90130E0C9010196877099274091C7
:10159000E8014817190699F097E0929FD001939FB0
:1015A000B00D1124A651BE4FFE01319601900D924F
:1015B0009A95E1F78093E9010E945408CACF0E94EE
:1015C000AA061092E9011092E80187E0E2E2F2E057
:1015D000DF011D928A95E9F7BCCF819FC0011124DC
:1015E00086519E4F0E940109882309F4B9CFE091EA
:1015F000E8011E9FF0011124E651FE4F2081318148
:10160000428153816481758186810E94E1068091C7
:10161000E80190E00196877099278093E8019ACFBE
:101620008091510286958695869508958091510204
:101630008770089590915102977081E009F480E0DD
:10164000089580917D02089590917D02892B809369
:101650007D020895809590917D02982390937D025C
:10166000089510927D02089590917C02892B8093B9
:101670007C020895809590917C02982390937C023F
:10168000089510927C02089508950E94440B0895D5
:1016900090915202292F282331F08095892380933D
:1016A00052020E94450B089508950E94540B08951C
:1016B00090915302292F2823281729F0982B9093D3
:1016C00053020E94550B089590915302292F28230D
:1016D00031F080958923809353020E94550B089521
:1016E00080915302882329F01092530280E00E94D7
:1016F000550B0895CF93C0917D0280917C02C82B39
:1017000080915302882331F0C82B0E94DD1A811189
:101710000E94700B8C2FCF910895CF93DF93C091CF
:101720000201D09103010E947A0B8883C0910201CB
:10173000D091030148E050E069E472E0CE010E94DC
:10174000A824892B59F088E0FE01A9E4B2E00190B9
:101750000D928A95E1F7CE010E946C1ADF91CF912C
:101760000895CF93DF93C0910001D09101010E94B1
:101770007A0B8983C0910001D091010140E250E0D1
:1017800069E272E0CE010E94A824892B59F080E220
:10179000FE01A9E2B2E001900D928A95E1F7CE0137
:1017A0000E94771ADF91CF910895809119018823C3
:1017B00039F08091C70287FF03C00E94B10B0895E2
:1017C0000E948D0B089508950E94E30B0895909157
:1017D000C80292FF11C098E0899F90011124622BEA
:1017E000609351020E94220780915102869586954E
:1017F00086950E94E40B08950E9422070895109296
:10180000510280E00E94E40B08959091510280956E
:10181000892380935102282F277069F4891759F082
:101820009091C80292FF07C08695869586950E9482
:101830002E070E94FF0B08959091C80292FB222769
:1018400020F9281769F080FB92F99093C8028091E3
:10185000C7029091C8020E94650C82E00E94050CAC
:1018600008958091C80282FB882780F991E089273A
:101870000E941C0C089581E00E941C0C089580E0D9
:101880000E941C0C08956FEF7FEF90E080E00E94B3
:10189000FA24089590E080E00E94C624853E9E4F81
:1018A00019F40E940C19089580E0089582E090E0F8
:1018B0000E94BE24089583E090E00E94BE24089513
:1018C00084E090E00E94C6240895BC0184E090E08A
:1018D0000E94FA240895AB01BC018FE090E00E94C1
:1018E000EE240895AB01BC0183E190E00E94EE2458
:1018F000089560E070E0CB010E94720C089560E0F2
:1019000070E0CB010E946B0C0E94790C0895A8E056
:10191000B0E0EDE8FCE00C946D2465EE7EEF90E025
:1019200080E00E94FA2460E082E090E00E94DC24E3
:1019300081E08093E70161E083E090E00E94DC2495
:1019400060E074E184E090E00E94FA2460E086E0C8
:1019500090E00E94DC2460E087E090E00E94DC24BC
:1019600040E050E0BA0188E090E00E94EE2460E0A0
:1019700083E290E00E94DC2460E08CE090E00E9432
:10198000DC2460E08DE090E00E94DC2419821A8261
:101990001B821C821D821E821F82188648E050E036
:1019A00067E170E0CE0101960E94CC2440E050E057
:1019B000BA018FE190E00E94EE2480E00E94251998
:1019C0000E9454190E947F0C2896E2E00C9489240E
:1019D0000E94870C0895682F8EE090E00E94DC241E
:1019E0000895A6E0B0E0E7EFFCE00C946B240E94C1
:1019F000A51C8C0180917E0290917F028017910737
:101A000081F019821A820E94A51C682F49815A818F
:101A1000792F80E090E00E94810310937F02009371
:101A20007E022696E4E00C9487240E94B11C609309
:101A30009C0270939D0280939E0290939F026093FC
:101A400098027093990280939A0290939B02089552
:101A5000089508950E94280D089508950E942D0D5F
:101A6000089588E290E10E94AB110E94290D0E9426
:101A70002A0D089581E008950E943A0D08950E946C
:101A80003A0D0895089508950E94420D0E94430D55
:101A900008950E944A0C811102C00E94E80C0E9425
:101AA000560C8093A0020E94600C9093C802809311
:101AB000C7020E94CF110E945B0C0E94F506809124
:101AC000E6010E940D0708950E949C1C0E94641963
:101AD0000E9403110E94490D0E9455030E942E0D81
:101AE0000895A8E0B0E0E7E7FDE00C945D240E94D3
:101AF0003C0D81110AC00E94F10C0E941E160E942A
:101B000068032896E2E10C9479240E94191180E878
:101B100092E098878F837C0110E0F701419051900B
:101B2000619071907F01812F0E9432101F5F1630EB
:101B300009F467C0461657066806790671F3809166
:101B4000A00281FD0E943D100E943F0D282E10E052
:101B500033243394812F0E9432106B017C01EF817A
:101B6000F8854190519061907190F887EF83C4148B
:101B7000D504E604F704F1F146265D2468267F24A7
:101B800000E0812C912C54018394D301C20188215F
:101B90009921AA21BB21892B8A2B8B2BE9F02220AA
:101BA000D9F009831A830E94A51C9C838B833D82F4
:101BB00021E0D701C60188219921AA21BB21892BC7
:101BC0008A2B8B2B09F420E049815A816B817C811F
:101BD0008D81922F0E9481030F5F880C991CAA1C93
:101BE000BB1C023191F6EF81F8853497C082D18217
:101BF000E282F3821F5F163009F0ACCF0E94150D10
:101C00007CCF461657066806790609F098CF73CF41
:101C10001F93CF93DF930E94370FEC01C11580E52E
:101C2000D807F0F5C11580E4D80708F09CC0C03E85
:101C3000D10520F5CD3CD10508F082C0C83AD105C8
:101C400078F4C53AD10508F073C0C130D10519F157
:101C5000209709F1C430D105F0F4D0E0C0E01BC0FA
:101C6000C33CD105D0F7C85AD0E0CC0FDD1FCD5A08
:101C7000DE4F0990D881C02DD4640DC0C11580E21B
:101C8000D80708F0D1C0C11581E0D80708F05AC0C4
:101C9000C83ED10510F7CE01DF91CF911F91089575
:101CA000C03682E5D80718F5C03482E5D80708F0B9
:101CB0006BC0C03282E5D80708F05FC0C11582E56D
:101CC000D80708F497C02C2F2695269580E2289FE8
:101CD000900111248C2F8370C1E0D0E002C0CC0FA2
:101CE000DD1F8A95E2F7C22BD32BDD68D4CFC03A33
:101CF00082E5D80760F4C03882E5D80708F459C0F7
:101D0000CF71D0E0DC2FCC27C46FD06AC4CFC03CE9
:101D100082E5D80708F462C0C03E82E5D80708F023
:101D20009CCFDC2FCC27CC27DF71C06FD06AB3CF1C
:101D3000C55AD0E0C757DE4FC881D0E0D064ABCFE2
:101D4000D065A9CF8D2F0E94D90F182FCE019927CA
:101D50000E94370FC12FD0E0DC2FCC27CC27DF71BA
:101D6000C82BD92B98CFCE0199270E94370FCC27AB
:101D7000DF70C82BD92BD06A8ECFCF71D0E0DC2F8B
:101D8000CC27C16FD06A87CF2C2F26952695277038
:101D900080E2289F900111248C2F8370C1E0D0E055
:101DA00002C0CC0FDD1F8A95E2F7C22BD32BDC6873
:101DB00072CF2C2F26952695277080E2289F9001C0
:101DC00011248C2F8370C1E0D0E002C0CC0FDD1F46
:101DD0008A95E2F7C22BD32BDA685DCF8C2F8F71F7
:101DE0000E94D90FC82FD0E0DC2FCC27CC27DF7181
:101DF000D06251CF8C2F8F710E94D90F55E0D695AC
:101E0000C7955A95E1F7CF70D0E0DC2FCC27282F6B
:101E100030E084FF05C044E0220F331F4A95E1F70C
:101E2000C22BD32BD06937CF8D2F8F710E94D90F42
:101E3000182FCE0199270E94370FC12FD0E0DC2F39
:101E4000CC27CC27DF71C82BD92BD2CF462F7630A9
:101E500030F4623120F4672F0E948A12089590E0D6
:101E600080E008950E94260F0E94080E089582388F
:101E70009105B9F1B0F48133910509F47DC048F4BE
:101E80008932910509F46DC08A32910509F47BC04D
:101E900008958533910509F45FC08933910509F1EF
:101EA0000895833E9105D9F138F4803E910529F1DA
:101EB000823E910579F10895863E9105D9F1873EDC
:101EC000910509F43EC0843E910541F52091C80278
:101ED00021FF24C08091C70284FD19C087EE90E0E5
:101EE00008952091C702237009F05AC02091C802BA
:101EF00023FF14C089E290E008952091C70220FDDD
:101F000038C03091C80230FF09C024FF43C090E0C0
:101F100080E008952091C70222FDF7CF0895209117
:101F2000C70222FD3AC03091C80230FD39C024FFFB
:101F3000F5CFEDCF2091C70223FFF0CF24FDE7CFEF
:101F4000CDCF2091C70223FD2EC03091C80231FFB2
:101F5000EECF84EE90E008952091C70225FFDECFFA
:101F6000C9CF2091C70225FD21C02091C80223FFBF
:101F7000D5CF89E390E0D2CF2091C70226FFCECF04
:101F80008AE290E008952091C70226FFC7CF81E33F
:101F900090E0089583EE90E0089582EE90E0089539
:101FA00080EE90E0089586EE90E0089585E390E05D
:101FB00008959091C70292FF10C041E0282F24712C
:101FC000243009F040E031E0282F2871283009F052
:101FD00030E0431711F02CE0822793FF10C041E05E
:101FE000282F2471243109F040E031E0282F287196
:101FF000283109F030E0431711F02CE082273091AE
:10200000C80230FF10C051E0282F2171213009F0A3
:1020100050E041E0282F2871283009F040E05417A3
:1020200011F029E0822731FF10C041E0282F2171F3
:10203000213109F040E031E0282F2871283109F0E2
:1020400030E0431711F029E0822794FD877E089540
:1020500080E0089508950E942A10089508950E942E
:102060002E10089594E0899FF0011124EF51FD4F47
:1020700060817181828193810895089580EA8A95B3
:10208000F1F7089500C008950E943E100895F89455
:10209000E82FE295EF70F0E031A1282F2F7081E05A
:1020A00090E001C0880F2A95EAF7982F9095932326
:1020B00091A392A1892B82A378940895CF93DF9363
:1020C000CEE9D1E089918F3F11F00E94471081E065
:1020D000C43AD807B9F7CCE8D1E089918F3F11F025
:1020E0000E94471081E0CE39D807B9F7DF91CF9130
:1020F00008954F925F926F927F928F929F92AF92CC
:10210000BF92DF92EF92FF920F931F93CF93DF93D3
:102110008C01D62EC62FD0E0CE0182569E4F7C0178
:10212000FC0120812F3F09F45EC0F894E22FE29574
:10213000EF70F0E031A12F7081E090E001C0880FD6
:102140002A95EAF7932F982B91A392A18095892342
:1021500082A378940E944210ECE8F1E02EE931E08D
:10216000412C512C32014394812C912C54018191AA
:102170008F3F89F0A82FA295AF70B0E090964C9158
:1021800050E08F7002C0559547958A95E2F7D301CC
:10219000C20140FF03C080E090E0DC01882A992A58
:1021A000AA2ABB2A440C551C661C771C2E173F0715
:1021B000F1F6F70180818F3F11F00E94471061E036
:1021C00081149104A104B10409F460E08D2D0E94F2
:1021D0004410CC0FDD1FCC0FDD1FC00FD11F888234
:1021E0009982AA82BB82DF91CF911F910F91FF90BC
:1021F000EF90DF90BF90AF909F908F907F906F9007
:102200005F904F9008950E945E1088E1E1EEF2E049
:10221000DF01982F1D929A95E9F7E9ECF2E0DF01D2
:102220001D928A95E9F786E00E9454110E942B10B6
:102230000895A8E1B0E0EFE1F1E10C946A248E0189
:102240000F5F1F4F88E1F80111928A95E9F7F12C91
:102250006F2DC8010E947910F394F6E0FF12F8CFB9
:1022600048E150E0B80189EC92E00E94A82421E006
:10227000009709F420E0892B41F088E1F801A9ECEE
:10228000B2E001900D928A95E1F746E061EE72E0CE
:1022900089EC92E00E945511182F0E942F10812F77
:1022A0006896E5E00C9486240895B0E0A0E0EBE5A4
:1022B000F1E10C9467246C017B01042FC22F2223CF
:1022C00079F081E08093A3020E94A51C9093A20262
:1022D0008093A10280E0CDB7DEB7E8E00C948324C0
:1022E000D091A302DD23B1F38091A1029091A202CB
:1022F0000E94BD1C059770F384E0089F80011124A3
:10230000A801B601C7010E94A824892B31F0A801B9
:10231000B601C7010E94B524CD2F1092A3028C2FC5
:10232000DACF0E94710D08950E943E1C0E94AA1EE1
:102330000E94310D0E94C41E0E94640D0E94D11E95
:102340000E94D61E0E9491110E94F01E0E94781DCC
:102350000E94440DF5CF9093B5018093B401089588
:102360000E94430C089580E00E943210862F8170F5
:1023700008950E9419112FEF86E791E021508040C7
:102380009040E1F700C000000E9419110E94B311B3
:10239000882321F00E94B0110E94F01C08950E9431
:1023A000B911089584E0089550E0440F551F94E258
:1023B000699F400D511D112498ED899F400D511DBD
:1023C0001124CA01889608950F931F93CF93DF932A
:1023D0008430C8F46630B8F44231A8F40E94D411B5
:1023E0008C010E94BE24C82FD0E0DC2FCC27C8016E
:1023F00001960E94BE249E01282BC901DF91CF9136
:102400001F910F91089590E080E0F8CF0F931F93F4
:10241000CF93DF93122F032F843078F4663068F463
:10242000423158F40E94D411EC01602F0E94DC2448
:10243000612FCE0101960E94DC24DF91CF911F9184
:102440000F9108951F93CF93DF93D0E0C0E011C0A8
:10245000412F6C2F8D2F0E943A029C01412F6C2F2F
:102460008D2F0E9406121F5F123191F7CF5FC63089
:1024700011F010E0EDCFDF5FD43041F7DF91CF9165
:102480001F910895EF92FF920F931F93CF93DF93C5
:10249000EC018A017C01E60EF71ECE018896CE156E
:1024A000DF0529F4CDB7DEB7E6E00C948524C0360D
:1024B00023E0D20740F40E94BE24F80180830F5F1E
:1024C0001F4F2196EACFF8011082F9CFB0E0A0E0CB
:1024D000ECE6F2E10C9467247C016A018C01060FA2
:1024E000171FEC01CE018896C017D10729F4CDB78C
:1024F000DEB7E8E00C948324C03623E0D20740F432
:10250000FE01EE19FF09EC0DFD1D60810E94DC2427
:102510002196E8CF843038F4663028F4423118F43C
:102520000E94E411089590E080E0089580E108950C
:1025300088E790E00895EF92FF920F931F93CF9357
:10254000DF93EC018A017C01E60EF71ECE0188576D
:102550009C4FCE15DF0529F4CDB7DEB7E6E00C942D
:102560008524C837D10540F40E94BE24F801808339
:102570000F5F1F4F2196EACFF8011082F9CFB0E02C
:10258000A0E0E5ECF2E10C9467247C016A018C0187
:10259000060F171FEC01CE0188579C4FC017D107BB
:1025A00029F4CDB7DEB7E8E00C948324C837D10511
:1025B00040F4FE01EE19FF09EC0DFD1D60810E9443
:1025C000DC242196E8CFCF93DF93C8E8D3E060E026
:1025D000CE010E94DC242196C11584E0D807B9F70A
:1025E000DF91CF910895A8E0B0E0E9EFF2E10C941B
:1025F0006524F82E8FE08F1508F46EC08FEF93E0FE
:102600000E94BE24811168C008E813E0F11035C0B3
:10261000FE0131966F0188E011928A95E9F7780101
:10262000FFEFEF1AFF0AC8010E94BE2489831A82B5
:10263000882309F451C08130D1F4580182E0A80EFA
:10264000B11CC7010E94BE248A83882309F444C0B8
:102650009FEF980F9330F0F4780193E0E90EF11CAE
:10266000C5010E94BE248B838823B1F11C8260E0E7
:10267000C6010E94B0178701D2CF011594E0190757
:1026800059F1C8010E94BE24811101C0FA940F5F64
:102690001F4FBCCF7501843051F702E010E0750187
:1026A000EFEFEE1AFE0AC5010E94BE24F601E00F0C
:1026B000F11F8083882381F08C3741F4E2E0F0E061
:1026C000EC0FFD1FE00FF11F1082D1CF0F5F1F4FE6
:1026D00057010730110519F72896EAE00C94812478
:1026E000CF93DF93EB0186319C4711F50E94210BBC
:1026F0009D81992399F08A7A91E009F490E0909372
:10270000A402811109C089E20E94881B0E94D50B96
:1027100080E0DF91CF91089585E3F6CF8091A40208
:10272000811104C089E20E949F1BF0CF85E3FBCF9B
:1027300081E0EFCFCF93DF93EC01FB01858188230C
:1027400009F4D2C09E0130572332310508F0B2C0DF
:102750000E94600C9093C8028093C702FE01E15072
:10276000F047E232F10520F4E25EFA4D0C94502479
:102770008091C70281608093C70293C08091C80294
:1027800088608093C8028DC08091C7028260F3CFB9
:102790008091C7028460EFCF8091C7028860EBCF41
:1027A0008091C8028160EDCF8091C8028260E9CF3C
:1027B0008091C7028061DFCF8091C7028062DBCF4A
:1027C0008091C7028064D7CF0E94AA068091C70279
:1027D0008068D1CF8091C7028C60CDCF8091C80234
:1027E0008360CFCF8091C7028E7FC5CF8091C80212
:1027F000877FC7CF8091C7028D7FBDCF8091C702F1
:102800008B7FB9CF8091C702877FB5CF8091C802F7
:102810008E7FB7CF8091C8028D7FB3CF8091C702E2
:102820008F7EA9CF8091C7028F7DA5CF8091C702EF
:102830008F7BA1CF0E94AA068091C7028F779BCF82
:102840008091C702837F97CF8091C8028C7F99CFF8
:102850008091C70282FB992790F921E0922790FB93
:1028600082F990FB83F987CF8091C802982F9095C9
:1028700091708E7F892B90FB81F983CF9091C70255
:10288000892F8F7B96FF806476CF0E94AA06909155
:10289000C702892F97FB87F980586DCF81E00E948E
:1028A000EB0C8091C7029091C8020E94650C0E94B7
:1028B000AA0680E0DF91CF91089580E0F0CF90915B
:1028C000C702892F8F7E94FF806155CF9091C702F8
:1028D000892F8E7F90FF81604ECF9091C802892F03
:1028E000877F93FF88604DCF81E0E4CF282F35EBC1
:1028F0002303C001112497FF04C080589109892F38
:10290000089580589F4FFBCF8091AB0280FF0DC090
:102910006091090170E0660F771F6038710570F5EE
:102920006115710569F1862F089581FF07C06091D7
:10293000090184E0689FB0011124EFCF6091090183
:1029400082FD0AC08091AA028823A9F02091080183
:1029500060910901821710F088E0ECCF869FC001DA
:10296000112433E0880F991F3A95E1F7622F70E048
:102970000E943C24D2CF68E070E0D5CF8FE7089565
:1029800081E008958091AB0280FF0CC06091050149
:1029900070E075956795759567956115710549F1B5
:1029A000862F089581FF06C06091050170E075953E
:1029B0006795F3CF6091050182FD0BC09091A9024C
:1029C0009923A1F06091040180910501961738F0D8
:1029D000682F70E06038710500F38FE70895899FD4
:1029E000C001112470E00E943C24F4CF61E070E04B
:1029F000D7CF81E008959091AE022091AF02922B43
:102A00002091B102922B2091B002922B31F098E0EC
:102A10009093AA0291E09093A9028D3C31F40E9418
:102A2000841481958093AF0208958E3C19F40E941E
:102A30008414F8CF8F3C31F40E94841481958093E4
:102A4000AE020895803D19F40E948414F8CF893DA8
:102A500029F40E94C2148093B00208958A3D21F4A3
:102A60000E94C2148195F7CF8B3D31F40E94C214AD
:102A700081958093B10208958C3D19F40E94C2148F
:102A8000F8CF9FE2980F983070F4815D990B21E0A8
:102A900030E001C0220F8A95EAF78091AD02822BC7
:102AA0008093AD0208958D3D31F48091AB02816039
:102AB0008093AB0208958E3D21F48091AB02826039
:102AC000F7CF8F3DB9F78091AB028460F1CF409191
:102AD000AE028D3C59F48091AF0287FF0DC0109279
:102AE000AF0241110BC01092AA0208C08E3C81F4C3
:102AF0008091AF0218169CF3442381F08091B002BC
:102B00009091B102892B09F05AC01092A902089540
:102B10008F3C49F447FFF0CF1092AE028091AF0294
:102B20008111ECCFE0CF803D19F41416ACF3E4CF63
:102B30009091B002893D29F41916F4F61092B00272
:102B4000DBCF8A3D19F497FFD7CFF8CF9091B10230
:102B50008B3D29F497FFD0CF1092B102CDCF8C3DA1
:102B600019F41916CCF3C8CF9FE2980F983090F45F
:102B7000815D990B21E030E0B90102C0660F771F3B
:102B80008A95E2F7CB0180959091AD0289238093DD
:102B9000AD02B2CF8D3D31F48091AB028E7F809338
:102BA000AB02AACF8E3D21F48091AB028D7FF7CF8F
:102BB0008F3D09F0A1CF8091AB028B7FF0CF0895BC
:102BC0000E94A51C9C019091AE028091AF02982BAF
:102BD00021F03093A8022093A7029091B002809137
:102BE000B102982B21F03093A6022093A5028CEA23
:102BF00092E00E94851A089586E0ECEAF2E0DF0197
:102C00001D928A95E9F71092AA021092A9021092D9
:102C1000AB020895FC01828181110EC08381811174
:102C20000BC08481811108C091E08581811101C0B0
:102C300090E0892F8170089581E0FCCFA6E0B0E09C
:102C4000E4E2F6E10C946C2486E0ECEAF2E0DE01CA
:102C5000119601900D928A95E1F71092AE021092B2
:102C6000AF021092B0021092B1028B819C81892B2D
:102C700089F08091A7029091A8020E94BD1CAC012E
:102C80009091AA029923C9F180910A01841715062F
:102C900008F440C08D819E81892B91F08091A5021E
:102CA0009091A6020E94BD1CAC019091A9029923AB
:102CB00009F46AC0809106018417150608F472C0F1
:102CC000BE016F5F7F4F8CEA92E00E94D01B8111A2
:102CD00005C08CEA92E00E940A1681110E94E0155C
:102CE00086E0FE013196ACEAB2E001900D928A9541
:102CF000E1F72696E3E00C94882420910B018AE00A
:102D0000289F900111242417350720F69F5F909388
:102D1000AA0202C09F3FD1F71B81112359F00E94E4
:102D200084149FEF11160CF491E0899F802D1124DB
:102D30008093AE021C81112359F00E9484149FEFEE
:102D400011160CF491E0899F802D11248093AF021D
:102D50008091AE02882309F49DCF1091AF02112318
:102D600009F498CF0E947614882351F08093AE0224
:102D7000812F0E947614882329F08093AF028ACF96
:102D800081E0F4CF81E0F9CF209107018AE0289F0C
:102D9000900111242417350708F092CF9F5F90937C
:102DA000A90202C09F3FD1F71D81112359F00E9453
:102DB000C2149FEF11160CF491E0899F802D11240D
:102DC0008093B0021E81112359F00E94C2149FEF1C
:102DD00011160CF491E0899F802D11248093B1028B
:102DE0008091B002882309F46BCF1091B1021123B6
:102DF00009F466CF0E947614882351F08093B002C4
:102E0000812F0E947614882329F08093B10258CF35
:102E100081E0F4CF81E0F9CFB0E0A0E0E2E1F7E1BA
:102E20000C946624E82FF0E0EC57FE4FB490282F66
:102E300026952695269530E0F901EC5DFD4F04912D
:102E4000877010E0082E02C0159507950A94E2F7E6
:102E500001701127F901EC5EFD4FE490F12C082E72
:102E600002C0F594E7940A94E2F791E0E922FF2486
:102E7000F901EC5FFD4FC491D0E002C0D595C79534
:102E80008A95E2F7C170DD27C62ED12C01151105F8
:102E900049F5E114F10431F086EE0E94C403C60145
:102EA000009771F5B6018B2D0E944004C601009772
:102EB00079F5E114F104A1F50115110531F081EE68
:102EC0000E940D04C6010097C9F5CD2B31F08CE2AC
:102ED0000E945804C114D104C9F5CDB7DEB7E9E0AA
:102EE0000C94822481EE0E94C403C601009789F2EB
:102EF000EFE9FFE03197F1F700C000000197F6CF4E
:102F0000EFE9FFE03197F1F700C000000197C8CF6B
:102F1000EFE9FFE03197F1F700C000000197C7CF5C
:102F200086EE0E940D04C601009731F2EFE9FFE042
:102F30003197F1F700C000000197F6CFEFE9FFE00D
:102F40003197F1F700C000000197BDCF8FE99FE0F6
:102F50000197F1F700C0000091E0C91AD108BACF7B
:102F6000EF92FF920F931F93CF93DF93EC01162FF5
:102F70000AE08881882309F459C0813009F052C0E1
:102F80008981813071F47E0182E0E80EF11C8A8132
:102F90000E945804E701812F90E00097D9F521960F
:102FA000E8CF823041F47E01E2E0EE0EF11C8A812E
:102FB0000E94C403EFCF833041F47E01F2E0EF0EB4
:102FC000F11C8A810E940D04E5CF843011F0219616
:102FD000E2CF2A81229690E080E0AE014F5F5F4F02
:102FE0002053330B2A30310550F00097A1F2EFE95E
:102FF000FFE03197F1F700C000000197F6CF089F7E
:10300000B001099F700D1124C901860F971F2981F6
:10301000EA01E3CFEFE9FFE03197F1F700C00000EC
:103020000197BBCF612F0E940C17B9CFCDB7DEB788
:10303000E6E00C9485240F931F93CF93DF93C42F66
:10304000D22FFC0185818823C9F04093B4020E94ED
:10305000A51C9093B3028093B20280E28C0F88305B
:1030600040F4C77081E001C0880FCA95EAF70E945A
:103070006104DF91CF911F910F9108951091B402D7
:10308000141332C08091B2029091B3020E94BD1C11
:10309000883C910548F5C0E2CD0F1D17B9F080E2DC
:1030A000810F883040F4177081E001C0880F1A95B5
:1030B000EAF70E946804C83048F481E09D2F9770B9
:1030C00001C0880F9A95EAF70E946104802F0E9440
:1030D0005804C83070F6D77081E001C0880FDA95C7
:1030E000EAF70E946804C5CF80E28C0F883008F6AA
:1030F000C77081E001C0880FCA95EAF7F2CF0F933D
:10310000DB0188519C4787309105A0F5FC01E05C0C
:10311000FA4D0C94502406E221EE41EE6AE17CE780
:10312000CD010E941B1880E00F91089507E225EE63
:1031300045EE6BE17CE7F4CF06E221EE40EE68E17C
:103140007CE7EECF07E225EE44EE69E17CE7E8CFCD
:1031500006E221EE42EE6CE17CE7E2CF07E225EEEB
:1031600046EE6DE17CE7DCCF08E221E045EE6EE162
:103170007CE7D6CF15968C91882319F01092B40273
:10318000D3CF81E0D1CF1F93CF93DF9387372CE745
:10319000920759F0C1E088379C47E1F4FB01C581F3
:1031A000CC2371F10E94061906C0FB01C581CC2316
:1031B000B1F00E9403190E9422070E940919D82F1A
:1031C0000E940619C82F0E9403194D2F6C2F0E94D0
:1031D0004A08C0E08C2FDF91CF911F9108950E9483
:1031E00003190E942E070E940919182F0E94061920
:1031F000D82F0E940319412F6D2F0E944A08EACF51
:103200000E940619EECF80910E01089580910D0164
:10321000089580910C01089584E290E00E94BE24FC
:10322000843289F485E290E00E94BE24803159F412
:1032300086E290E00E94BE2491E0813209F090E0A5
:10324000892F8170089580E0FCCFCF93C82F6FEF56
:10325000811164E284E290E00E94DC246FEFC111EE
:1032600060E185E290E00E94DC246FEFC11161E231
:1032700086E290E00E94DC24CF910895089587E2D1
:1032800090E00E94BE24682F70E090E080E00895F6
:103290000895CF93C62F0E9448196C2F87E290E0C3
:1032A0000E94DC24CF91089580E00E94251960E0FF
:1032B00070E0CB010E9449190E9422120E94E31281
:1032C00081E00E94251908950E943E190E943F192D
:1032D0000E9448190E940C19811102C00E945419C1
:1032E000089508959C01FB018581882351F0A9016F
:1032F00057574038510530F4822F0E94F31280E076
:10330000089581E008952FEFFC01208308950E9425
:103310008319089580E00895B0E0A0E0E2E9F9E1C2
:103320000C946724EC01C62E0E948A19811110C0EA
:10333000E881E150E331B8F4F0E0E95BFA4D0C9438
:10334000502419828CE08A836C2DCE010E946F1D5F
:10335000CDB7DEB7E8E00C94832489818230C1F0D8
:1033600028F4813061F08FEF8883EECF833099F0BD
:103370008430C9F71A821B821C821D82E5CF0E940D
:10338000B11C0E9456246A837B838C839D83DCCF8F
:103390000E943F19F6CF8A81082F10E07E0199E044
:1033A000D92ED80E0630110578F6802F0E943210E3
:1033B000F7018383748365830F5F1F4FF3E0EF0E84
:1033C000F11CD012EFCFC0CF8981823031F085302F
:1033D00051F68A810E947119B7CF6A817B818C81F5
:1033E0009D810E9456240E944919AECF4B816A816B
:1033F00089810E94E4119827892798279D838C83CF
:10340000A3CF2C813D813227232732274B816A812C
:1034100089810E94061298CF0E94221295CF6C2DAE
:10342000CE010E94871990CF0E94961289838CCF7B
:103430000E9498129827892798279A83898384CF96
:103440006B8170E089819A81AE014C5F5F4F982754
:10345000892798270E949B1277CF6B8170E0898122
:103460009A81AE014C5F5F4F9827892798270E9469
:10347000BF126ACF0E94E31267CF0E94D211D6CF4B
:103480006B8170E089819A81AE014C5F5F4F982714
:10349000892798270E94421257CF6B8170E089815B
:1034A0009A81AE014C5F5F4F9827892798270E9429
:1034B00066124ACF9093BA028093B9020895E091C0
:1034C000B902F091BA02309729F00190F081E02D15
:1034D0000995089580E00895E091B902F091BA024B
:1034E000309721F00280F381E02D09950895E09155
:1034F000B902F091BA02309739F026E0DC012C9342
:103500000480F581E02D09950895E091B902F091CC
:10351000BA02309739F022E0DC012C930680F78163
:10352000E02D09950895A3E0B0E0E9E9FAE10C94F3
:103530006D242091B7023091B80228173907A1F005
:103540009093B8028093B702E091B902F091BA0269
:10355000309751F023E029839B838A830084F1858F
:10356000E02DCE01019609952396E2E00C94892482
:10357000A3E0B0E0EEEBFAE10C946D242091B502EB
:103580003091B60228173907A1F09093B6028093C4
:10359000B502E091B902F091BA02309751F024E0FF
:1035A00029839B838A830084F185E02DCE010196D7
:1035B00009952396E2E00C94892420910201309130
:1035C00003012E5F3F4F80911901882379F080918C
:1035D000C70287FF0BC020910001309101012E5FCF
:1035E0003F4F9EE180E0915018F4089596E0FACFA5
:1035F000F90141919F014423B1F38F5FF4CF8823F8
:1036000021F190911901992311F19091C70297FF2F
:103610001EC0E82FE695E695E695EE31B0F42091D0
:10362000000130910101E20FF32FF11D228130E002
:10363000877041E050E002C0440F551F8A95E2F7C1
:103640002423352381E0232B91F480E008952091F9
:10365000020130910301F9013296285F3F4F9191A9
:10366000981721F0E217F307D1F7EFCF81E0089523
:103670009C01FC0132969FEF80E04191461751F08A
:103680009F3F19F4411101C0982F8F5F8630A9F731
:103690009F3F09F40895290F311D97FD3A95F901CF
:1036A00062830895FC01329608962191261303C087
:1036B000DF0111971C92E817F907B9F70895E62F73
:1036C000E695E695E695EE3168F4E80FF92FF11DE1
:1036D000677021E030E001C0220F6A95EAF782812D
:1036E000822B82830895E62FE695E695E695EE31E6
:1036F00070F4E80FF92FF11D677021E030E001C090
:10370000220F6A95EAF72095828128232283089563
:10371000682F80911901882359F08091C70287FF93
:1037200007C080910001909101010E945F1B0895E4
:1037300080910201909103010E94381B0895682F27
:1037400080911901882359F08091C70287FF07C033
:1037500080910001909101010E94731B0895809156
:103760000201909103010E94521B0895809119015A
:10377000882379F08091C70287FF0BC0E091000198
:10378000F091010132968EE1DF011D928A95E9F7F1
:103790000895E0910201F0910301329686E0F4CFA2
:1037A000DC01FB0111969C9111978181981322C035
:1037B00012968C911297882319F0928189131AC05E
:1037C00013968C911397882319F09381891312C053
:1037D00015968C911597882319F0958189130AC045
:1037E00014969C91992321F081E02481291303C030
:1037F00080E001C081E08170089508950E94FD1B62
:103800000895811106C081E08093BB020E94FE1BD7
:10381000089582E0F9CF83E08093BB020E94FE1BF3
:1038200008950E94011C089581E08093BB020E94CC
:10383000FE1B08950E94141C0895089508950E9487
:103840001E1C0895089508950E941D1C0895CF938D
:103850000E94221C0E9419110E94231CC0E08C2F80
:103860000E943210672B682B692B31F4CF5FC63072
:10387000B1F780E0CF91089581E0FCCF85B78068F3
:1038800085BF85B7806885BF08951F921FB61F92B8
:1038900011248F939F93AF93BF938091BC028111AA
:1038A00013C08091F9029091FA02A091FB02B091AD
:1038B000FC024196A11DB11D8093F9029093FA027A
:1038C000A093FB02B093FC02BF91AF919F918F91A7
:1038D0001F901FBE1F90189580910103843031F115
:1038E0000E9438031092BC0288E190E020E40FB6F9
:1038F000F894A895809360000FBE2093600083B772
:10390000817F846083BF83B7816083BF789488950B
:1039100083B78E7F83BF0FB6F894A895809160001F
:10392000886180936000109260000FBE08950E942D
:10393000AA060E943D03089582E084BD93E095BDF0
:103940009AEF97BD80936E0008952FB7F8948091F9
:10395000F9029091FA02A091FB02B091FC022FBFF4
:1039600008952FB7F8946091F9027091FA0280914E
:10397000FB029091FC022FBF08959C014FB7F89471
:103980008091F9029091FA02A091FB02B091FC02A1
:103990004FBF821B930B089578941F921FB61F92FE
:1039A00011248F939F93AF93BF938091F9029091CD
:1039B000FA02A091FB02B091FC020196A11DB11D7B
:1039C0008093F9029093FA02A093FB02B093FC0259
:1039D000BF91AF919F918F911F901FBE1F9018951F
:1039E00081E08093E00080E28093D8001092C900CB
:1039F0008FE19EE40197F1F700C0000087E090EBB3
:103A0000DC0180930A0390930B03A0930C03B09303
:103A10000D0388E19CE00FB6F894A89580936000B0
:103A20000FBE90936000FFCF88E19CE00FB6F89442
:103A3000A895809360000FBE90936000FFCF8091A7
:103A4000C50208959B01BA01909101039430E9F4F5
:103A50008F708093E9009FEF8091E800915085FD81
:103A600006C085ED8A95F1F700009111F5CF8091A0
:103A7000E80085FF0AC050E040E0C9010E94661FCF
:103A80008091E8008E778093E800089543E050E04D
:103A9000BC0184E00E94221D089546E050E0BC0174
:103AA00084E00E94221D089540E250E0BC0184E0C1
:103AB0000E94221D0895CF93DF93EC0148E050E06F
:103AC000BC0181E00E94221D88E0FE01ADEBB2E066
:103AD00001900D928A95E1F7DF91CF9108956032C0
:103AE00031F440E250E0BC0182E00E94221D0895C2
:103AF000A0E2B0E0EEE7FDE10C946D2480910103BB
:103B0000843009F583E08093E9008091E80082FF2A
:103B10001AC08091E80090E085FF09C050E040E0C5
:103B200060E270E0CE0101960E94B51F91E08091A5
:103B3000E8008B778093E800992329F060E2CE01BA
:103B400001960E948C19A096E2E00C948924809141
:103B50000003811109C00E9445210E94A221809189
:103B6000E20084608093E2000895109200030895BB
:103B70000E94141C08956091FD0281E0611101C052
:103B800080E00E940B1C08959091010381E0943025
:103B900009F080E06091FD020E94111C089542E04E
:103BA00061EC81E00E94C12042E261EC84E00E946D
:103BB000C12042E261EC82E00E94C12042E260EC5E
:103BC00083E00E94C1209091010381E0943009F0CC
:103BD00080E06091FD020E94011C08958091030322
:103BE000833009F463C030F48130E1F1823009F4AC
:103BF000A0C008958A3009F48CC08B3009F471C0DC
:103C0000893009F052C080910203813209F04DC021
:103C10008091060390910703009719F0029709F02D
:103C200044C08091E800877F8093E8008091E8009D
:103C300082FF37C09091F3008091F200029731F437
:103C40008091F100813011F0863021F48091F100F3
:103C50008093C5028091E8008B778093E8000E94F2
:103C6000F52023C080910203813AF9F48091E800A5
:103C7000877F8093E8008091060390910703892B4A
:103C800061F468E08DEB92E070E00E940420809186
:103C9000E8008B778093E800089560E090E080E092
:103CA000F3CF809101038111C1CF08958091020368
:103CB000813AD9F78091060390910703892BA9F7E0
:103CC0008091E800877F8093E8008091E80080FF82
:103CD000FCCF809119018093F1008091E8008E77EC
:103CE000BCCF80910203813201F78091060390914D
:103CF0000703892BD1F68091E800877F8093E80045
:103D00000E94F52080910403809319010E94AA0665
:103D1000089580910203813241F68091E800877F07
:103D20008093E8000E94F520809105038093C602ED
:103D3000089580910203813A09F0B7CF8091E8009D
:103D4000877F8093E8008091E80080FFFCCF80911E
:103D5000C602C1CF84B7877F84BF0FB6F894A895F9
:103D600080916000886180936000109260000FBEB7
:103D700080E890E00FB6F894809361009093610022
:103D80000FBE0E941A1C08950E9445210E94A22184
:103D9000E2EEF0E080818460808378940E942124A8
:103DA00008958FE091E00E945A1A089580910103CE
:103DB000853031F480910103853019F00E94971C01
:103DC00008950E946C1C8091FF02882399F30E9441
:103DD000271C882379F30E94501F0E94AA06EACF6D
:103DE00008959A0140910803509109030E94F91E19
:103DF0000895492F55274330510521F168F441308A
:103E0000510509F443C04230510509F444C090E023
:103E100080E050E040E026C04132510551F142328D
:103E20005105A9F76330710590F7FB01EE0FFF1FF5
:103E3000E955FE4F408151816C557E4FFB018081D9
:103E400090E010C099278130910581F0009729F00A
:103E50000297E9F6E4E3F2E002C0E2E7F2E08491DF
:103E600090E0AF01F901518340830895E0E5F2E06D
:103E7000F6CF6330710558F6660F771FFB01E355E7
:103E8000FE4F4081518189E090E0ECCF82E190E0EB
:103E900041ED52E0E7CF8BE590E046E752E0E2CF1C
:103EA00080E189BD82E189BD09B400FEFDCF80912A
:103EB000D8008F7D8093D8008091E000826080934D
:103EC000E0008091E00081FDFCCF0895AF92BF92A9
:103ED000CF92DF92FF920F931F93CF93DF936C01EA
:103EE000EB018A010E941421F82E811123C00115D3
:103EF000110539F0F80180819181C81BD90BC80EDA
:103F0000D91EB12CA12C2097A9F08091E80085FD45
:103F100022C08091E8008E778093E800011511059A
:103F2000A1F0F80180819181A80EB91EB182A08212
:103F300085E0F82E8F2DDF91CF911F910F91FF908B
:103F4000DF90CF90BF90AF9008950E9414218823F6
:103F5000D1F2F82EEFCFF60181916F018093F1003D
:103F60002197FFEFAF1ABF0ACECFAF92BF92CF9289
:103F7000DF92FF920F931F93CF93DF936C01EB01BE
:103F80008A010E941421F82E811123C00115110508
:103F900039F0F80180819181C81BD90BC80ED91E58
:103FA000B12CA12C2097A9F08091E80085FD22C0BA
:103FB0008091E8008B778093E80001151105A1F04E
:103FC000F80180819181A80EB91EB182A08285E09E
:103FD000F82E8F2DDF91CF911F910F91FF90DF90E1
:103FE000CF90BF90AF9008950E9414218823D1F202
:103FF000F82EEFCF8091F100F60181936F012197A8
:10400000FFEFAF1ABF0ACECFFC0180910803909159
:10401000090386179707A0F06115710529F490919F
:10402000E8009E779093E80090E06115710551F4E7
:10403000911108C08091E80082FF34C080E00895AB
:10404000BC01F2CF809101038823C1F18530C1F119
:104050008091E80083FD30C08091E80082FDEACFC6
:104060008091E80080FFE1CF8091F3002091F20081
:10407000382F6115710519F02830310558F091E09D
:104080002830310509F090E02091E8002E77209348
:10409000E800CBCF81918093F100615071092F5FCF
:1040A0003F4FE7CF80910103882341F0853041F0F5
:1040B0008091E80083FFBECF81E0089582E00895FB
:1040C00083E00895FC01809108039091090386170D
:1040D0009707A0F06115710529F48091E8008E77AB
:1040E0008093E80090E06115710551F4911108C0CA
:1040F0008091E80082FF35C080E00895BC01F2CFD6
:10410000809101038823C9F18530C9F18091E800CD
:1041100083FD31C08091E80082FDEACF8091E80004
:1041200080FFE1CF8091F3002091F200382F6115DC
:10413000710519F02830310558F091E0283031052B
:1041400009F090E08091E8008E778093E800CBCF73
:1041500084918093F1003196615071092F5F3F4F38
:10416000E6CF80910103882341F0853041F08091B2
:10417000E80083FFBDCF81E0089582E0089583E0E9
:104180000895982F973028F08F708093E90081E090
:1041900008959093E900242F762F50E0981731F07E
:1041A0007091EC002091ED005091F00021FD02C0D3
:1041B0009F5FE8CF3091EB003E7F3093EB00309172
:1041C000ED003D7F3093ED003091EB003160309396
:1041D000EB007093EC002093ED005093F0002091E1
:1041E000EE0027FDE5CF80E008958091020387FF70
:1041F00013C08091E80082FF06C08091E8008B77B1
:104200008093E80004C0809101038111F2CF0895EA
:10421000809101038823D9F38091E80080FFF8CFD3
:104220008091E8008E77ECCF2091E4003091E5009A
:1042300095E6A9012091EC00822F817020FF06C035
:104240008091E80080FF06C080E008952091E8009A
:1042500022FD1AC080910103882389F0853089F0FE
:104260008091EB0085FD0FC02091E4003091E500C6
:1042700042175307F9F29150E1F684E0089582E085
:10428000089583E0089581E008950E94B4210E947A
:10429000BC21E0EEF0E0808181608083E8EDF0E019
:1042A00080818F77808319BCA7EDB0E08C918E7FE1
:1042B0008C9380818F7E80831092000308950F93EA
:1042C0001F93CF93DF930E94B4210E94BC21C8EDBD
:1042D000D0E088818F77888388818068888388810F
:1042E0008F7D888319BC109201031092FD021092F9
:1042F000FF021092FE0200EE10E0F80180818B7F39
:10430000808388818160888342E060E080E00E9451
:10431000C120E1EEF0E080818E7F8083E2EEF0E06C
:10432000808181608083808188608083F8018081C2
:104330008E7F8083888180618883DF91CF911F91F8
:104340000F910895E8EDF0E080818F7E8083E7EDA6
:10435000F0E080818160808384E082BF81E080938F
:1043600000030E945F210895E8EDF0E080818E7FD8
:1043700080831092E20008951092DA001092E1001A
:1043800008951F920F920FB60F9211242F933F930F
:104390004F935F936F937F938F939F93AF93BF934D
:1043A000EF93FF938091E10082FF0BC08091E200C8
:1043B00082FF07C08091E1008B7F8093E1000E9423
:1043C00020248091DA0080FF19C08091D80080FFFE
:1043D00015C08091DA008E7F8093DA008091D90039
:1043E00080FF96C080E189BD82E189BD09B400FEED
:1043F000FDCF81E0809301030E94A71D8091E10021
:1044000080FF19C08091E20080FF15C08091E2001A
:104410008E7F8093E2008091E20080618093E200D1
:104420008091D80080628093D80019BC85E0809389
:1044300001030E94BB1D8091E10084FF2BC080918D
:10444000E20084FF27C080E189BD82E189BD89B592
:10445000982F917080FFFBCF8091D8008F7D809343
:10446000D8008091E1008F7E8093E1008091E2008E
:104470008F7E8093E2008091E20081608093E20071
:104480008091FD02882309F449C084E080930103F0
:104490000E94C41D8091E10083FF29C08091E20049
:1044A00083FF25C08091E100877F8093E10082E057
:1044B000809301031092FD028091E1008E7F809332
:1044C000E1008091E2008E7F8093E2008091E20023
:1044D00080618093E20042E060E080E00E94C120C1
:1044E0008091F00088608093F0000E94B81DFF91D9
:1044F000EF91BF91AF919F918F917F916F915F915C
:104500004F913F912F910F900FBE0F901F901895D4
:1045100019BC109201030E94B51D70CF8091E30079
:1045200087FD93E090930103B3CF1F920F920FB6D4
:104530000F9211242F933F934F935F936F937F9329
:104540008F939F93AF93BF93CF93DF93EF93FF939B
:10455000D091E900DF708091EC00C82FC17080FD20
:10456000C0E81092E9008091F000877F8093F0000E
:1045700078940E94D9221092E9008091F00088601E
:104580008093F000CD2BCF70C093E900FF91EF91A5
:10459000DF91CF91BF91AF919F918F917F916F915B
:1045A0005F914F913F912F910F900FBE0F901F90F1
:1045B0001895AAE2B0E0EFEDF2E20C946C2482E0F0
:1045C00093E02091F100FC012193CF01F3E08A30C8
:1045D0009F07B9F70E94EE1D8091E80083FF1EC17E
:1045E00080910203909103039A3008F017C1E92FDC
:1045F000F0E0E65AFA4D0C945024803899F0823855
:1046000009F00CC1809106038F70873008F006C155
:104610008093E9008091EB0085FB882780F9109258
:10462000E90006C08091FE029091FF029111826024
:104630009091E800977F9093E8008093F1001092AA
:10464000F1008091E8008E77E5C0882309F4D3C09B
:10465000823009F0E3C0809104038111D6C08091BB
:1046600006038F702FEF280F263008F0D7C08093F5
:10467000E9002091EB0020FFC8C0933031F4809115
:10468000EB0080628093EB00C0C09091EB009061E2
:104690009093EB0021E030E001C0220F8A95EAF709
:1046A0002093EA001092EA008091EB008860EACF44
:1046B0008111B4C0109104031F778091E3008078CA
:1046C000812B8093E3008091E800877F8093E8004E
:1046D0000E94F5208091E80080FFFCCF8091E300EC
:1046E00080688093E30082E0111183E080930103EE
:1046F00095C08058823008F091C080910403909159
:1047000005038C3D23E09207A1F583E08A838AE2CA
:1047100089834FB7F894DE01139620E03EE051E222
:10472000E32FF0E050935700E49120FF03C0E2959F
:10473000EF703F5FEF708E2F90E0EA30C0F0C796C9
:104740008D939D932F5F243159F74FBF8091E800DF
:10475000877F8093E8006AE270E0CE0101960E94B4
:1047600004208091E8008B778093E80057C0C096C2
:10477000E7CF6091060370910703AE014F5F5F4F73
:104780000E94F11EBC01892B09F448C09091E800F9
:10479000977F9093E80089819A810E946220E1CFFF
:1047A0008038E1F58091E800877F8093E800809170
:1047B000FD028093F10045CF811130C09091040338
:1047C000923060F58091E800877F8093E8009093B5
:1047D000FD020E94F5208091FD02882311F084E003
:1047E00005C08091E30087FDFACF81E0809301034B
:1047F0000E94CF1D13C080910403813079F481E0C1
:10480000933009F080E08093FF021092E9008091DC
:10481000E800877F8093E8000E94F5208091E800FF
:1048200083FF0AC08091E800877F8093E800809131
:10483000EB0080628093EB00AA96E3E00C9488245E
:104840000895CF93809101038823A1F0C091E900DE
:10485000CF709091EC00892F817090FD80E8C82B7B
:104860001092E9008091E80083FD0E94D922CF7068
:10487000C093E900CF91089597FB072E16F400949A
:1048800007D077FD09D00E94942407FC05D03EF4A0
:10489000909581959F4F0895709561957F4F0895EC
:1048A000EE0FFF1F0590F491E02D099469279627DC
:1048B000692778278727782708952F923F924F926C
:1048C0005F926F927F928F929F92AF92BF92CF92A0
:1048D000DF92EF92FF920F931F93CF93DF93CDB7A9
:1048E000DEB7CA1BDB0B0FB6F894DEBF0FBECDBF21
:1048F00009942A88398848885F846E847D848C84F2
:104900009B84AA84B984C884DF80EE80FD800C81FA
:104910001B81AA81B981CE0FD11D0FB6F894DEBFDD
:104920000FBECDBFED010895AA1BBB1B51E107C00F
:10493000AA1FBB1FA617B70710F0A61BB70B881F2F
:10494000991F5A95A9F780959095BC01CD010895BE
:10495000FB01DC0104C08D910190801921F44150CC
:104960005040C8F7881B990B0895FB01DC0102C079
:1049700001900D9241505040D8F70895F999FECF1B
:1049800092BD81BDF89A992780B50895A8E1B0E05D
:1049900042E050E00C940225DC01A40FB51F415009
:1049A000504048F0CB01840F951F2E910E94DD24CA
:1049B00041505040D0F70895262FF999FECF92BD6F
:1049C00081BDF89A019700B4021639F01FBA20BDD4
:1049D0000FB6F894FA9AF99A0FBE08950396272F06
:1049E0000E94DD240E94DC24252F0E94DD24242F38
:1049F0000C94DD240196272F0E94DD240C94DC24E6
:104A0000DC01CB01FC01F999FECF06C0F2BDE1BD8E
:104A1000F89A319600B40D9241505040B8F708957D
:104A2000F894FFCFB004B0040005000565058105CA
:104A3000DF04DF048605ED05FC05FC05F2136614B2
:104A4000FA13C413C813FE13CC1302140E14D81394
:104A50005F14DC131214E01316143E14E4131A143A
:104A60004514EA1320142814D0130614D4130A147E
:104A7000EE13241434144E145D14BE13F6136D1487
:104A80009C18A2188B189618A818AE18B418A1195B
:104A9000AD19E419F619011A0C1A0F1A0F1A0F1A88
:104AA000B319B319141A181A201A2D1A3A1A3D1AE2
:104AB000401A4D1AFD2225230E2425230E245823A7
:084AC00079230E24D023DC232E
:104AC80054027402280850011E0A14010302011F2F
:104AD8001D5B1D541D4D1D461D01E200E900EA0045
:104AE800B500B600B700CD008301CC008A01920161
:104AF80094012102230224022502260227022A0207
:104B0800B300B4006F0070009F01CB019F02A002A8
:104B1800818283E200E900EA00B500B600B700CD63
:104B2800008301CC008A019201940121022302240E
:104B3800022502260227022A02B300B4006F007081
:104B4800009F01CB019F02A002818283C6F0F13051
:104B5800323366363534979694959392919037F41C
:104B6800F5F6F7674422B6BB03E30205038802A102
:044B780002C1020074
:00000001FF
